{
  "_format": "hh-sol-artifact-1",
  "contractName": "DeadCaster",
  "sourceName": "contracts/DeadCaster.sol",
  "abi": [
    {
      "anonymous": false,
      "inputs": [
        {
          "indexed": true,
          "internalType": "address",
          "name": "creator",
          "type": "address"
        },
        {
          "indexed": false,
          "internalType": "uint256",
          "name": "index",
          "type": "uint256"
        },
        {
          "indexed": false,
          "internalType": "string",
          "name": "scheme",
          "type": "string"
        },
        {
          "indexed": true,
          "internalType": "uint256",
          "name": "fid",
          "type": "uint256"
        },
        {
          "indexed": false,
          "internalType": "uint256",
          "name": "bounty",
          "type": "uint256"
        }
      ],
      "name": "SecretCreated",
      "type": "event"
    },
    {
      "anonymous": false,
      "inputs": [
        {
          "indexed": true,
          "internalType": "address",
          "name": "creator",
          "type": "address"
        },
        {
          "indexed": false,
          "internalType": "uint256",
          "name": "index",
          "type": "uint256"
        },
        {
          "indexed": false,
          "internalType": "string",
          "name": "scheme",
          "type": "string"
        },
        {
          "indexed": true,
          "internalType": "uint256",
          "name": "fid",
          "type": "uint256"
        },
        {
          "indexed": false,
          "internalType": "uint256",
          "name": "bounty",
          "type": "uint256"
        }
      ],
      "name": "SecretRevealed",
      "type": "event"
    },
    {
      "inputs": [
        {
          "internalType": "address",
          "name": "",
          "type": "address"
        }
      ],
      "name": "_lastSeen",
      "outputs": [
        {
          "internalType": "uint256",
          "name": "",
          "type": "uint256"
        }
      ],
      "stateMutability": "view",
      "type": "function"
    },
    {
      "inputs": [
        {
          "internalType": "uint256",
          "name": "",
          "type": "uint256"
        }
      ],
      "name": "_metas",
      "outputs": [
        {
          "internalType": "address",
          "name": "creator",
          "type": "address"
        },
        {
          "internalType": "uint256",
          "name": "longevity",
          "type": "uint256"
        },
        {
          "internalType": "string",
          "name": "scheme",
          "type": "string"
        },
        {
          "internalType": "uint256",
          "name": "fid",
          "type": "uint256"
        },
        {
          "internalType": "uint256",
          "name": "bounty",
          "type": "uint256"
        }
      ],
      "stateMutability": "view",
      "type": "function"
    },
    {
      "inputs": [
        {
          "internalType": "uint256",
          "name": "longevity",
          "type": "uint256"
        },
        {
          "internalType": "bytes",
          "name": "secret",
          "type": "bytes"
        },
        {
          "internalType": "string",
          "name": "scheme",
          "type": "string"
        },
        {
          "internalType": "uint256",
          "name": "fid",
          "type": "uint256"
        }
      ],
      "name": "createSecret",
      "outputs": [],
      "stateMutability": "payable",
      "type": "function"
    },
    {
      "inputs": [
        {
          "internalType": "address",
          "name": "owner",
          "type": "address"
        }
      ],
      "name": "getLastSeen",
      "outputs": [
        {
          "internalType": "uint256",
          "name": "",
          "type": "uint256"
        }
      ],
      "stateMutability": "view",
      "type": "function"
    },
    {
      "inputs": [
        {
          "internalType": "uint256",
          "name": "offset",
          "type": "uint256"
        },
        {
          "internalType": "uint256",
          "name": "count",
          "type": "uint256"
        }
      ],
      "name": "getMetas",
      "outputs": [
        {
          "components": [
            {
              "internalType": "address",
              "name": "creator",
              "type": "address"
            },
            {
              "internalType": "uint256",
              "name": "longevity",
              "type": "uint256"
            },
            {
              "internalType": "string",
              "name": "scheme",
              "type": "string"
            },
            {
              "internalType": "uint256",
              "name": "fid",
              "type": "uint256"
            },
            {
              "internalType": "uint256",
              "name": "bounty",
              "type": "uint256"
            }
          ],
          "internalType": "struct DeadCaster.SecretMetadata[]",
          "name": "",
          "type": "tuple[]"
        }
      ],
      "stateMutability": "view",
      "type": "function"
    },
    {
      "inputs": [],
      "name": "refreshSecrets",
      "outputs": [],
      "stateMutability": "nonpayable",
      "type": "function"
    },
    {
      "inputs": [
        {
          "internalType": "uint256",
          "name": "index",
          "type": "uint256"
        }
      ],
      "name": "revealSecret",
      "outputs": [
        {
          "internalType": "bytes",
          "name": "",
          "type": "bytes"
        }
      ],
      "stateMutability": "nonpayable",
      "type": "function"
    }
  ],
  "bytecode": "0x608060405234801561001057600080fd5b50610ebb806100206000396000f3fe6080604052600436106100605760003560e01c80633d1a0f11146100655780634aec3a321461007a57806361b94576146100b057806388193a25146100f4578063975136901461010957806398df67c614610136578063cafc24ff14610163575b600080fd5b6100786100733660046108f8565b610194565b005b34801561008657600080fd5b5061009a610095366004610979565b6102f6565b6040516100a791906109e1565b60405180910390f35b3480156100bc57600080fd5b506100e66100cb366004610a81565b6001600160a01b031660009081526002602052604090205490565b6040519081526020016100a7565b34801561010057600080fd5b50610078610514565b34801561011557600080fd5b506100e6610124366004610a81565b60026020526000908152604090205481565b34801561014257600080fd5b50610156610151366004610ab1565b61051e565b6040516100a79190610aca565b34801561016f57600080fd5b5061018361017e366004610ab1565b61078f565b6040516100a7959493929190610add565b61019c610864565b6040805160a08101825233815260208082018990528251601f860182900482028101820184528581526000938301918790879081908401838280828437600092018290525093855250505060208083018690523460409384015284546001808201875595835291819020845160059093020180546001600160a01b0319166001600160a01b0390931692909217825583015193810193909355810151909190600282019061024a9082610bcc565b50606082015160038201556080909101516004909101556001805480820182556000919091527fb10e2d527612073b26eecdfd717e6a320cf44b4afac2b0732d9fcbe2b7fa0cf60161029d858783610c85565b50600054819033907f02b0e67a937d6b85fa5c7ba9d11dbc9cdd73679ff5f7584cc2800ee8a01b8c78906102d390600190610d55565b8686346040516102e69493929190610d68565b60405180910390a3505050505050565b600054606090831061033b576040805160008082526020820190925290610333565b610320610878565b8152602001906001900390816103185790505b50905061050e565b600080546103498486610da8565b11156103625760005461035d908590610d55565b610364565b825b90506000816001600160401b0381111561038057610380610b18565b6040519080825280602002602001820160405280156103b957816020015b6103a6610878565b81526020019060019003908161039e5790505b50905060005b828110156105095760006103d38288610da8565b815481106103e3576103e3610dbb565b90600052602060002090600502016040518060a00160405290816000820160009054906101000a90046001600160a01b03166001600160a01b03166001600160a01b031681526020016001820154815260200160028201805461044590610b2e565b80601f016020809104026020016040519081016040528092919081815260200182805461047190610b2e565b80156104be5780601f10610493576101008083540402835291602001916104be565b820191906000526020600020905b8154815290600101906020018083116104a157829003601f168201915b50505050508152602001600382015481526020016004820154815250508282815181106104ed576104ed610dbb565b60200260200101819052508061050290610dd1565b90506103bf565b509150505b92915050565b61051c610864565b565b60005460609082106105685760405162461bcd60e51b815260206004820152600e60248201526d1b9bc81cdd58da081cd958dc995d60921b60448201526064015b60405180910390fd5b600080838154811061057c5761057c610dbb565b6000918252602082206005909102015481546001600160a01b0390911692508190859081106105ad576105ad610dbb565b90600052602060002090600502016001015460026000846001600160a01b03166001600160a01b03168152602001908152602001600020546105ef9190610da8565b90508042101561062f5760405162461bcd60e51b815260206004820152600b60248201526a1b9bdd08195e1c1a5c995960aa1b604482015260640161055f565b6000848154811061064257610642610dbb565b906000526020600020906005020160030154826001600160a01b03167f03600c10aad521a7feb0a71b5d00bcdce56ed104f7f29508de4e7f71cde09f13866000888154811061069357610693610dbb565b9060005260206000209060050201600201600089815481106106b7576106b7610dbb565b9060005260206000209060050201600401546040516106d893929190610dea565b60405180910390a3600184815481106106f3576106f3610dbb565b90600052602060002001805461070890610b2e565b80601f016020809104026020016040519081016040528092919081815260200182805461073490610b2e565b80156107815780601f1061075657610100808354040283529160200191610781565b820191906000526020600020905b81548152906001019060200180831161076457829003601f168201915b505050505092505050919050565b6000818154811061079f57600080fd5b60009182526020909120600590910201805460018201546002830180546001600160a01b0390931694509092916107d590610b2e565b80601f016020809104026020016040519081016040528092919081815260200182805461080190610b2e565b801561084e5780601f106108235761010080835404028352916020019161084e565b820191906000526020600020905b81548152906001019060200180831161083157829003601f168201915b5050505050908060030154908060040154905085565b336000908152600260205260409020429055565b6040518060a0016040528060006001600160a01b03168152602001600081526020016060815260200160008152602001600081525090565b60008083601f8401126108c257600080fd5b5081356001600160401b038111156108d957600080fd5b6020830191508360208285010111156108f157600080fd5b9250929050565b6000806000806000806080878903121561091157600080fd5b8635955060208701356001600160401b038082111561092f57600080fd5b61093b8a838b016108b0565b9097509550604089013591508082111561095457600080fd5b5061096189828a016108b0565b979a9699509497949695606090950135949350505050565b6000806040838503121561098c57600080fd5b50508035926020909101359150565b6000815180845260005b818110156109c1576020818501810151868301820152016109a5565b506000602082860101526020601f19601f83011685010191505092915050565b60006020808301818452808551808352604092508286019150828160051b87010184880160005b83811015610a7357888303603f19018552815180516001600160a01b0316845287810151888501528681015160a088860181905290610a498287018261099b565b60608481015190880152608093840151939096019290925250509386019390860190600101610a08565b509098975050505050505050565b600060208284031215610a9357600080fd5b81356001600160a01b0381168114610aaa57600080fd5b9392505050565b600060208284031215610ac357600080fd5b5035919050565b602081526000610aaa602083018461099b565b60018060a01b038616815284602082015260a060408201526000610b0460a083018661099b565b606083019490945250608001529392505050565b634e487b7160e01b600052604160045260246000fd5b600181811c90821680610b4257607f821691505b602082108103610b6257634e487b7160e01b600052602260045260246000fd5b50919050565b601f821115610bb257600081815260208120601f850160051c81016020861015610b8f5750805b601f850160051c820191505b81811015610bae57828155600101610b9b565b5050505b505050565b600019600383901b1c191660019190911b1790565b81516001600160401b03811115610be557610be5610b18565b610bf981610bf38454610b2e565b84610b68565b602080601f831160018114610c285760008415610c165750858301515b610c208582610bb7565b865550610bae565b600085815260208120601f198616915b82811015610c5757888601518255948401946001909101908401610c38565b5085821015610c755787850151600019600388901b60f8161c191681555b5050505050600190811b01905550565b6001600160401b03831115610c9c57610c9c610b18565b610cb083610caa8354610b2e565b83610b68565b6000601f841160018114610cde5760008515610ccc5750838201355b610cd68682610bb7565b845550610d38565b600083815260209020601f19861690835b82811015610d0f5786850135825560209485019460019092019101610cef565b5086821015610d2c5760001960f88860031b161c19848701351681555b505060018560011b0183555b5050505050565b634e487b7160e01b600052601160045260246000fd5b8181038181111561050e5761050e610d3f565b848152606060208201528260608201528284608083013760006080848301015260006080601f19601f860116830101905082604083015295945050505050565b8082018082111561050e5761050e610d3f565b634e487b7160e01b600052603260045260246000fd5b600060018201610de357610de3610d3f565b5060010190565b8381526000602060608184015260008554610e0481610b2e565b8060608701526080600180841660008114610e265760018114610e4057610e6e565b60ff1985168984015283151560051b890183019550610e6e565b8a6000528660002060005b85811015610e665781548b8201860152908301908801610e4b565b8a0184019650505b50505050506040939093019390935250939250505056fea2646970667358221220d28e6336aa24bd45d727de14ef33d169c37d026f247e6a270f40344a368f6ba864736f6c63430008140033",
  "linkReferences": {},
  "deployedLinkReferences": {}
}