{
  "_format": "hh-sol-artifact-1",
  "contractName": "DeadCaster",
  "sourceName": "contracts/DeadCaster.sol",
  "abi": [
    {
      "anonymous": false,
      "inputs": [
        {
          "indexed": true,
          "internalType": "address",
          "name": "creator",
          "type": "address"
        },
        {
          "indexed": true,
          "internalType": "string",
          "name": "name",
          "type": "string"
        },
        {
          "indexed": false,
          "internalType": "uint256",
          "name": "index",
          "type": "uint256"
        }
      ],
      "name": "SecretCreated",
      "type": "event"
    },
    {
      "anonymous": false,
      "inputs": [
        {
          "indexed": true,
          "internalType": "address",
          "name": "creator",
          "type": "address"
        },
        {
          "indexed": true,
          "internalType": "string",
          "name": "name",
          "type": "string"
        },
        {
          "indexed": false,
          "internalType": "uint256",
          "name": "index",
          "type": "uint256"
        }
      ],
      "name": "SecretRevealed",
      "type": "event"
    },
    {
      "inputs": [
        {
          "internalType": "address",
          "name": "",
          "type": "address"
        }
      ],
      "name": "_lastSeen",
      "outputs": [
        {
          "internalType": "uint256",
          "name": "",
          "type": "uint256"
        }
      ],
      "stateMutability": "view",
      "type": "function"
    },
    {
      "inputs": [
        {
          "internalType": "uint256",
          "name": "",
          "type": "uint256"
        }
      ],
      "name": "_metas",
      "outputs": [
        {
          "internalType": "address",
          "name": "creator",
          "type": "address"
        },
        {
          "internalType": "string",
          "name": "name",
          "type": "string"
        },
        {
          "internalType": "uint256",
          "name": "longevity",
          "type": "uint256"
        }
      ],
      "stateMutability": "view",
      "type": "function"
    },
    {
      "inputs": [
        {
          "internalType": "string",
          "name": "name",
          "type": "string"
        },
        {
          "internalType": "uint256",
          "name": "longevity",
          "type": "uint256"
        },
        {
          "internalType": "bytes",
          "name": "secret",
          "type": "bytes"
        }
      ],
      "name": "createSecret",
      "outputs": [],
      "stateMutability": "nonpayable",
      "type": "function"
    },
    {
      "inputs": [
        {
          "internalType": "address",
          "name": "owner",
          "type": "address"
        }
      ],
      "name": "getLastSeen",
      "outputs": [
        {
          "internalType": "uint256",
          "name": "",
          "type": "uint256"
        }
      ],
      "stateMutability": "view",
      "type": "function"
    },
    {
      "inputs": [
        {
          "internalType": "uint256",
          "name": "offset",
          "type": "uint256"
        },
        {
          "internalType": "uint256",
          "name": "count",
          "type": "uint256"
        }
      ],
      "name": "getMetas",
      "outputs": [
        {
          "components": [
            {
              "internalType": "address",
              "name": "creator",
              "type": "address"
            },
            {
              "internalType": "string",
              "name": "name",
              "type": "string"
            },
            {
              "internalType": "uint256",
              "name": "longevity",
              "type": "uint256"
            }
          ],
          "internalType": "struct DeadCaster.SecretMetadata[]",
          "name": "",
          "type": "tuple[]"
        }
      ],
      "stateMutability": "view",
      "type": "function"
    },
    {
      "inputs": [],
      "name": "refreshSecrets",
      "outputs": [],
      "stateMutability": "nonpayable",
      "type": "function"
    },
    {
      "inputs": [
        {
          "internalType": "uint256",
          "name": "index",
          "type": "uint256"
        }
      ],
      "name": "revealSecret",
      "outputs": [
        {
          "internalType": "bytes",
          "name": "",
          "type": "bytes"
        }
      ],
      "stateMutability": "nonpayable",
      "type": "function"
    }
  ],
  "bytecode": "0x608060405234801561001057600080fd5b50610d72806100206000396000f3fe608060405234801561001057600080fd5b506004361061006d5760003560e01c8063413c0fd8146100725780634aec3a321461008757806361b94576146100b057806388193a25146100e757806397513690146100ef57806398df67c61461010f578063cafc24ff1461012f575b600080fd5b610085610080366004610827565b610151565b005b61009a6100953660046108a0565b6102af565b6040516100a79190610908565b60405180910390f35b6100d96100be366004610994565b6001600160a01b031660009081526002602052604090205490565b6040519081526020016100a7565b6100856104a1565b6100d96100fd366004610994565b60026020526000908152604090205481565b61012261011d3660046109c4565b6104ab565b6040516100a791906109dd565b61014261013d3660046109c4565b6106d9565b6040516100a7939291906109f0565b6101596107a1565b60006040518060600160405280336001600160a01b0316815260200187878080601f0160208091040260200160405190810160405280939291908181526020018383808284376000920182905250938552505050602091820187905283546001808201865594825290829020835160039092020180546001600160a01b0319166001600160a01b039092169190911781559082015191929091908201906102009082610ad8565b50604091909101516002909101556001805480820182556000919091527fb10e2d527612073b26eecdfd717e6a320cf44b4afac2b0732d9fcbe2b7fa0cf60161024a828483610b91565b50848460405161025b929190610c4b565b60405190819003902060005433907f12a499eb02c8cf9494d3a624d30d5f39809807866252f6783a9ad28431d52e959061029790600190610c71565b60405190815260200160405180910390a35050505050565b60005460609083106102f45760408051600080825260208201909252906102ec565b6102d96107b5565b8152602001906001900390816102d15790505b50905061049b565b600080546103028486610c84565b111561031b57600054610316908590610c71565b61031d565b825b90506000816001600160401b0381111561033957610339610a24565b60405190808252806020026020018201604052801561037257816020015b61035f6107b5565b8152602001906001900390816103575790505b50905060005b8281101561049657600061038c8288610c84565b8154811061039c5761039c610c97565b6000918252602091829020604080516060810190915260039092020180546001600160a01b0316825260018101805492939192918401916103dc90610a3a565b80601f016020809104026020016040519081016040528092919081815260200182805461040890610a3a565b80156104555780601f1061042a57610100808354040283529160200191610455565b820191906000526020600020905b81548152906001019060200180831161043857829003601f168201915b5050505050815260200160028201548152505082828151811061047a5761047a610c97565b60200260200101819052508061048f90610cad565b9050610378565b509150505b92915050565b6104a96107a1565b565b60005460609082106104f55760405162461bcd60e51b815260206004820152600e60248201526d1b9bc81cdd58da081cd958dc995d60921b60448201526064015b60405180910390fd5b600080838154811061050957610509610c97565b6000918252602082206003909102015481546001600160a01b03909116925081908590811061053a5761053a610c97565b6000918252602080832060026003909302018201546001600160a01b038616845291905260409091205461056e9190610c84565b9050804210156105ae5760405162461bcd60e51b815260206004820152600b60248201526a1b9bdd08195e1c1a5c995960aa1b60448201526064016104ec565b600084815481106105c1576105c1610c97565b90600052602060002090600302016001016040516105df9190610cc6565b6040518091039020826001600160a01b03167f08acac239b874e19cf736ed5370e1bc54e17ac10c96028aeaba701c13081d02d8660405161062291815260200190565b60405180910390a36001848154811061063d5761063d610c97565b90600052602060002001805461065290610a3a565b80601f016020809104026020016040519081016040528092919081815260200182805461067e90610a3a565b80156106cb5780601f106106a0576101008083540402835291602001916106cb565b820191906000526020600020905b8154815290600101906020018083116106ae57829003601f168201915b505050505092505050919050565b600081815481106106e957600080fd5b6000918252602090912060039091020180546001820180546001600160a01b0390921693509061071890610a3a565b80601f016020809104026020016040519081016040528092919081815260200182805461074490610a3a565b80156107915780601f1061076657610100808354040283529160200191610791565b820191906000526020600020905b81548152906001019060200180831161077457829003601f168201915b5050505050908060020154905083565b336000908152600260205260409020429055565b604051806060016040528060006001600160a01b0316815260200160608152602001600081525090565b60008083601f8401126107f157600080fd5b5081356001600160401b0381111561080857600080fd5b60208301915083602082850101111561082057600080fd5b9250929050565b60008060008060006060868803121561083f57600080fd5b85356001600160401b038082111561085657600080fd5b61086289838a016107df565b909750955060208801359450604088013591508082111561088257600080fd5b5061088f888289016107df565b969995985093965092949392505050565b600080604083850312156108b357600080fd5b50508035926020909101359150565b6000815180845260005b818110156108e8576020818501810151868301820152016108cc565b506000602082860101526020601f19601f83011685010191505092915050565b60006020808301818452808551808352604092508286019150828160051b87010184880160005b8381101561098657888303603f19018552815180516001600160a01b0316845287810151606089860181905290610968828701826108c2565b9289015195890195909552509487019492509086019060010161092f565b509098975050505050505050565b6000602082840312156109a657600080fd5b81356001600160a01b03811681146109bd57600080fd5b9392505050565b6000602082840312156109d657600080fd5b5035919050565b6020815260006109bd60208301846108c2565b6001600160a01b0384168152606060208201819052600090610a14908301856108c2565b9050826040830152949350505050565b634e487b7160e01b600052604160045260246000fd5b600181811c90821680610a4e57607f821691505b602082108103610a6e57634e487b7160e01b600052602260045260246000fd5b50919050565b601f821115610abe57600081815260208120601f850160051c81016020861015610a9b5750805b601f850160051c820191505b81811015610aba57828155600101610aa7565b5050505b505050565b600019600383901b1c191660019190911b1790565b81516001600160401b03811115610af157610af1610a24565b610b0581610aff8454610a3a565b84610a74565b602080601f831160018114610b345760008415610b225750858301515b610b2c8582610ac3565b865550610aba565b600085815260208120601f198616915b82811015610b6357888601518255948401946001909101908401610b44565b5085821015610b815787850151600019600388901b60f8161c191681555b5050505050600190811b01905550565b6001600160401b03831115610ba857610ba8610a24565b610bbc83610bb68354610a3a565b83610a74565b6000601f841160018114610bea5760008515610bd85750838201355b610be28682610ac3565b845550610c44565b600083815260209020601f19861690835b82811015610c1b5786850135825560209485019460019092019101610bfb565b5086821015610c385760001960f88860031b161c19848701351681555b505060018560011b0183555b5050505050565b8183823760009101908152919050565b634e487b7160e01b600052601160045260246000fd5b8181038181111561049b5761049b610c5b565b8082018082111561049b5761049b610c5b565b634e487b7160e01b600052603260045260246000fd5b600060018201610cbf57610cbf610c5b565b5060010190565b6000808354610cd481610a3a565b60018281168015610cec5760018114610d0157610d30565b60ff1984168752821515830287019450610d30565b8760005260208060002060005b85811015610d275781548a820152908401908201610d0e565b50505082870194505b5092969550505050505056fea2646970667358221220ead7433e0c888d83b496dea4a799cc78763e2ee9a4193ca5ebb05b114798276a64736f6c63430008140033",
  "linkReferences": {},
  "deployedLinkReferences": {}
}