{
  "_format": "hh-sol-artifact-1",
  "contractName": "DeadCaster",
  "sourceName": "contracts/DeadCaster.sol",
  "abi": [
    {
      "anonymous": false,
      "inputs": [
        {
          "indexed": true,
          "internalType": "address",
          "name": "creator",
          "type": "address"
        },
        {
          "indexed": false,
          "internalType": "uint256",
          "name": "index",
          "type": "uint256"
        },
        {
          "indexed": false,
          "internalType": "string",
          "name": "scheme",
          "type": "string"
        },
        {
          "indexed": true,
          "internalType": "uint256",
          "name": "fid",
          "type": "uint256"
        },
        {
          "indexed": false,
          "internalType": "uint256",
          "name": "bounty",
          "type": "uint256"
        }
      ],
      "name": "SecretCreated",
      "type": "event"
    },
    {
      "anonymous": false,
      "inputs": [
        {
          "indexed": true,
          "internalType": "address",
          "name": "creator",
          "type": "address"
        },
        {
          "indexed": false,
          "internalType": "uint256",
          "name": "index",
          "type": "uint256"
        },
        {
          "indexed": false,
          "internalType": "string",
          "name": "scheme",
          "type": "string"
        },
        {
          "indexed": true,
          "internalType": "uint256",
          "name": "fid",
          "type": "uint256"
        },
        {
          "indexed": false,
          "internalType": "uint256",
          "name": "bounty",
          "type": "uint256"
        },
        {
          "indexed": false,
          "internalType": "bytes",
          "name": "secret",
          "type": "bytes"
        }
      ],
      "name": "SecretRevealed",
      "type": "event"
    },
    {
      "inputs": [
        {
          "internalType": "address",
          "name": "",
          "type": "address"
        }
      ],
      "name": "_lastSeen",
      "outputs": [
        {
          "internalType": "uint256",
          "name": "",
          "type": "uint256"
        }
      ],
      "stateMutability": "view",
      "type": "function"
    },
    {
      "inputs": [
        {
          "internalType": "uint256",
          "name": "",
          "type": "uint256"
        }
      ],
      "name": "_metas",
      "outputs": [
        {
          "internalType": "address",
          "name": "creator",
          "type": "address"
        },
        {
          "internalType": "uint256",
          "name": "longevity",
          "type": "uint256"
        },
        {
          "internalType": "string",
          "name": "scheme",
          "type": "string"
        },
        {
          "internalType": "uint256",
          "name": "fid",
          "type": "uint256"
        },
        {
          "internalType": "uint256",
          "name": "bounty",
          "type": "uint256"
        },
        {
          "internalType": "bool",
          "name": "bountyPaid",
          "type": "bool"
        }
      ],
      "stateMutability": "view",
      "type": "function"
    },
    {
      "inputs": [
        {
          "internalType": "uint256",
          "name": "longevity",
          "type": "uint256"
        },
        {
          "internalType": "bytes",
          "name": "secret",
          "type": "bytes"
        },
        {
          "internalType": "string",
          "name": "scheme",
          "type": "string"
        },
        {
          "internalType": "uint256",
          "name": "fid",
          "type": "uint256"
        }
      ],
      "name": "createSecret",
      "outputs": [],
      "stateMutability": "payable",
      "type": "function"
    },
    {
      "inputs": [
        {
          "internalType": "address",
          "name": "owner",
          "type": "address"
        }
      ],
      "name": "getLastSeen",
      "outputs": [
        {
          "internalType": "uint256",
          "name": "",
          "type": "uint256"
        }
      ],
      "stateMutability": "view",
      "type": "function"
    },
    {
      "inputs": [
        {
          "internalType": "uint256",
          "name": "offset",
          "type": "uint256"
        },
        {
          "internalType": "uint256",
          "name": "count",
          "type": "uint256"
        }
      ],
      "name": "getMetas",
      "outputs": [
        {
          "components": [
            {
              "internalType": "address",
              "name": "creator",
              "type": "address"
            },
            {
              "internalType": "uint256",
              "name": "longevity",
              "type": "uint256"
            },
            {
              "internalType": "string",
              "name": "scheme",
              "type": "string"
            },
            {
              "internalType": "uint256",
              "name": "fid",
              "type": "uint256"
            },
            {
              "internalType": "uint256",
              "name": "bounty",
              "type": "uint256"
            },
            {
              "internalType": "bool",
              "name": "bountyPaid",
              "type": "bool"
            }
          ],
          "internalType": "struct DeadCaster.SecretMetadata[]",
          "name": "",
          "type": "tuple[]"
        }
      ],
      "stateMutability": "view",
      "type": "function"
    },
    {
      "inputs": [],
      "name": "refreshSecrets",
      "outputs": [],
      "stateMutability": "nonpayable",
      "type": "function"
    },
    {
      "inputs": [
        {
          "internalType": "uint256",
          "name": "index",
          "type": "uint256"
        }
      ],
      "name": "revealSecret",
      "outputs": [
        {
          "internalType": "bytes",
          "name": "",
          "type": "bytes"
        }
      ],
      "stateMutability": "nonpayable",
      "type": "function"
    },
    {
      "inputs": [
        {
          "internalType": "uint256",
          "name": "index",
          "type": "uint256"
        }
      ],
      "name": "revealSecretView",
      "outputs": [
        {
          "internalType": "bytes",
          "name": "",
          "type": "bytes"
        }
      ],
      "stateMutability": "view",
      "type": "function"
    }
  ],
  "bytecode": "0x608060405234801561001057600080fd5b50611120806100206000396000f3fe60806040526004361061006b5760003560e01c80633d1a0f11146100705780634aec3a321461008557806361b94576146100bb57806388193a25146100ff578063975136901461011457806398df67c614610141578063cafc24ff1461016e578063fc72e35a146101a0575b600080fd5b61008361007e366004610ada565b6101c0565b005b34801561009157600080fd5b506100a56100a0366004610b5b565b610345565b6040516100b29190610bc3565b60405180910390f35b3480156100c757600080fd5b506100f16100d6366004610c6f565b6001600160a01b031660009081526002602052604090205490565b6040519081526020016100b2565b34801561010b57600080fd5b50610083610575565b34801561012057600080fd5b506100f161012f366004610c6f565b60026020526000908152604090205481565b34801561014d57600080fd5b5061016161015c366004610c9f565b61057f565b6040516100b29190610cb8565b34801561017a57600080fd5b5061018e610189366004610c9f565b610890565b6040516100b296959493929190610ccb565b3480156101ac57600080fd5b506101616101bb366004610c9f565b610970565b6101c8610a3d565b6040805160c08101825233815260208082018990528251601f8601829004820281018201845285815260009383019187908790819084018382808284376000920182905250938552505050602080830186905234604080850191909152606090930182905284546001808201875595835291819020845160069093020180546001600160a01b0319166001600160a01b039093169290921782558301519381019390935581015190919060028201906102819082610dc6565b50606082015160038201556080820151600482015560a0909101516005909101805460ff19169115159190911790556001805480820182556000919091527fb10e2d527612073b26eecdfd717e6a320cf44b4afac2b0732d9fcbe2b7fa0cf6016102ec858783610e7f565b50600054819033907f02b0e67a937d6b85fa5c7ba9d11dbc9cdd73679ff5f7584cc2800ee8a01b8c789061032290600190610f4f565b8686346040516103359493929190610f62565b60405180910390a3505050505050565b600054606090831061038a576040805160008082526020820190925290610382565b61036f610a51565b8152602001906001900390816103675790505b50905061056f565b600080546103988486610fa2565b11156103b1576000546103ac908590610f4f565b6103b3565b825b90506000816001600160401b038111156103cf576103cf610d12565b60405190808252806020026020018201604052801561040857816020015b6103f5610a51565b8152602001906001900390816103ed5790505b50905060005b8281101561056a5760006104228288610fa2565b8154811061043257610432610fb5565b90600052602060002090600602016040518060c00160405290816000820160009054906101000a90046001600160a01b03166001600160a01b03166001600160a01b031681526020016001820154815260200160028201805461049490610d28565b80601f01602080910402602001604051908101604052809291908181526020018280546104c090610d28565b801561050d5780601f106104e25761010080835404028352916020019161050d565b820191906000526020600020905b8154815290600101906020018083116104f057829003601f168201915b5050509183525050600382015460208201526004820154604082015260059091015460ff161515606090910152825183908390811061054e5761054e610fb5565b60200260200101819052508061056390610fcb565b905061040e565b509150505b92915050565b61057d610a3d565b565b60005460609082106105ac5760405162461bcd60e51b81526004016105a390610fe4565b60405180910390fd5b60008083815481106105c0576105c0610fb5565b6000918252602082206006909102015481546001600160a01b0390911692508190859081106105f1576105f1610fb5565b90600052602060002090600602016001015460026000846001600160a01b03166001600160a01b03168152602001908152602001600020546106339190610fa2565b9050804210156106555760405162461bcd60e51b81526004016105a39061100c565b6000848154811061066857610668610fb5565b906000526020600020906006020160030154826001600160a01b03167fc8926ad61af449e29f2f06d912e3ebefd46bc0e90b80c323faf748236dab6dbf86600088815481106106b9576106b9610fb5565b9060005260206000209060060201600201600089815481106106dd576106dd610fb5565b90600052602060002090600602016004015460018a8154811061070257610702610fb5565b9060005260206000200160405161071c94939291906110ae565b60405180910390a36000848154811061073757610737610fb5565b600091825260209091206005600690920201015460ff166107e15760016000858154811061076757610767610fb5565b60009182526020822060069190910201600501805460ff191692151592909217909155805433916108fc91879081106107a2576107a2610fb5565b9060005260206000209060060201600401549081150290604051600060405180830381858888f193505050501580156107df573d6000803e3d6000fd5b505b600184815481106107f4576107f4610fb5565b90600052602060002001805461080990610d28565b80601f016020809104026020016040519081016040528092919081815260200182805461083590610d28565b80156108825780601f1061085757610100808354040283529160200191610882565b820191906000526020600020905b81548152906001019060200180831161086557829003601f168201915b505050505092505050919050565b600081815481106108a057600080fd5b60009182526020909120600690910201805460018201546002830180546001600160a01b0390931694509092916108d690610d28565b80601f016020809104026020016040519081016040528092919081815260200182805461090290610d28565b801561094f5780601f106109245761010080835404028352916020019161094f565b820191906000526020600020905b81548152906001019060200180831161093257829003601f168201915b50505050600383015460048401546005909401549293909290915060ff1686565b60005460609082106109945760405162461bcd60e51b81526004016105a390610fe4565b60008083815481106109a8576109a8610fb5565b6000918252602082206006909102015481546001600160a01b0390911692508190859081106109d9576109d9610fb5565b90600052602060002090600602016001015460026000846001600160a01b03166001600160a01b0316815260200190815260200160002054610a1b9190610fa2565b9050804210156107e15760405162461bcd60e51b81526004016105a39061100c565b336000908152600260205260409020429055565b6040518060c0016040528060006001600160a01b03168152602001600081526020016060815260200160008152602001600081526020016000151581525090565b60008083601f840112610aa457600080fd5b5081356001600160401b03811115610abb57600080fd5b602083019150836020828501011115610ad357600080fd5b9250929050565b60008060008060008060808789031215610af357600080fd5b8635955060208701356001600160401b0380821115610b1157600080fd5b610b1d8a838b01610a92565b90975095506040890135915080821115610b3657600080fd5b50610b4389828a01610a92565b979a9699509497949695606090950135949350505050565b60008060408385031215610b6e57600080fd5b50508035926020909101359150565b6000815180845260005b81811015610ba357602081850181015186830182015201610b87565b506000602082860101526020601f19601f83011685010191505092915050565b60006020808301818452808551808352604092508286019150828160051b87010184880160005b83811015610c6157888303603f19018552815180516001600160a01b0316845287810151888501528681015160c088860181905290610c2b82870182610b7d565b606084810151908801526080808501519088015260a0938401511515939096019290925250509386019390860190600101610bea565b509098975050505050505050565b600060208284031215610c8157600080fd5b81356001600160a01b0381168114610c9857600080fd5b9392505050565b600060208284031215610cb157600080fd5b5035919050565b602081526000610c986020830184610b7d565b60018060a01b038716815285602082015260c060408201526000610cf260c0830187610b7d565b6060830195909552506080810192909252151560a0909101529392505050565b634e487b7160e01b600052604160045260246000fd5b600181811c90821680610d3c57607f821691505b602082108103610d5c57634e487b7160e01b600052602260045260246000fd5b50919050565b601f821115610dac57600081815260208120601f850160051c81016020861015610d895750805b601f850160051c820191505b81811015610da857828155600101610d95565b5050505b505050565b600019600383901b1c191660019190911b1790565b81516001600160401b03811115610ddf57610ddf610d12565b610df381610ded8454610d28565b84610d62565b602080601f831160018114610e225760008415610e105750858301515b610e1a8582610db1565b865550610da8565b600085815260208120601f198616915b82811015610e5157888601518255948401946001909101908401610e32565b5085821015610e6f5787850151600019600388901b60f8161c191681555b5050505050600190811b01905550565b6001600160401b03831115610e9657610e96610d12565b610eaa83610ea48354610d28565b83610d62565b6000601f841160018114610ed85760008515610ec65750838201355b610ed08682610db1565b845550610f32565b600083815260209020601f19861690835b82811015610f095786850135825560209485019460019092019101610ee9565b5086821015610f265760001960f88860031b161c19848701351681555b505060018560011b0183555b5050505050565b634e487b7160e01b600052601160045260246000fd5b8181038181111561056f5761056f610f39565b848152606060208201528260608201528284608083013760006080848301015260006080601f19601f860116830101905082604083015295945050505050565b8082018082111561056f5761056f610f39565b634e487b7160e01b600052603260045260246000fd5b600060018201610fdd57610fdd610f39565b5060010190565b6020808252600e908201526d1b9bc81cdd58da081cd958dc995d60921b604082015260600190565b6020808252600b908201526a1b9bdd08195e1c1a5c995960aa1b604082015260600190565b6000815461103e81610d28565b80855260206001838116801561105b5760018114611075576110a3565b60ff1985168884015283151560051b8801830195506110a3565b866000528260002060005b8581101561109b5781548a8201860152908301908401611080565b890184019650505b505050505092915050565b8481526080602082015260006110c76080830186611031565b84604084015282810360608401526110df8185611031565b97965050505050505056fea2646970667358221220fec6b1a1381446d39854d1fe1d5a7594e037572618635077abade02287e107bd64736f6c63430008140033",
  "linkReferences": {},
  "deployedLinkReferences": {}
}