{
  "_format": "hh-sol-artifact-1",
  "contractName": "DeadCaster",
  "sourceName": "contracts/DeadCaster.sol",
  "abi": [
    {
      "anonymous": false,
      "inputs": [
        {
          "indexed": true,
          "internalType": "address",
          "name": "creator",
          "type": "address"
        },
        {
          "indexed": false,
          "internalType": "uint256",
          "name": "index",
          "type": "uint256"
        },
        {
          "indexed": false,
          "internalType": "string",
          "name": "scheme",
          "type": "string"
        },
        {
          "indexed": true,
          "internalType": "uint256",
          "name": "fid",
          "type": "uint256"
        },
        {
          "indexed": false,
          "internalType": "uint256",
          "name": "bounty",
          "type": "uint256"
        }
      ],
      "name": "SecretCreated",
      "type": "event"
    },
    {
      "anonymous": false,
      "inputs": [
        {
          "indexed": true,
          "internalType": "address",
          "name": "creator",
          "type": "address"
        },
        {
          "indexed": false,
          "internalType": "uint256",
          "name": "index",
          "type": "uint256"
        },
        {
          "indexed": false,
          "internalType": "string",
          "name": "scheme",
          "type": "string"
        },
        {
          "indexed": true,
          "internalType": "uint256",
          "name": "fid",
          "type": "uint256"
        },
        {
          "indexed": false,
          "internalType": "uint256",
          "name": "bounty",
          "type": "uint256"
        },
        {
          "indexed": false,
          "internalType": "bytes",
          "name": "secret",
          "type": "bytes"
        }
      ],
      "name": "SecretRevealed",
      "type": "event"
    },
    {
      "inputs": [
        {
          "internalType": "address",
          "name": "",
          "type": "address"
        }
      ],
      "name": "_lastSeen",
      "outputs": [
        {
          "internalType": "uint256",
          "name": "",
          "type": "uint256"
        }
      ],
      "stateMutability": "view",
      "type": "function"
    },
    {
      "inputs": [
        {
          "internalType": "uint256",
          "name": "",
          "type": "uint256"
        }
      ],
      "name": "_metas",
      "outputs": [
        {
          "internalType": "address",
          "name": "creator",
          "type": "address"
        },
        {
          "internalType": "uint256",
          "name": "longevity",
          "type": "uint256"
        },
        {
          "internalType": "string",
          "name": "scheme",
          "type": "string"
        },
        {
          "internalType": "uint256",
          "name": "fid",
          "type": "uint256"
        },
        {
          "internalType": "uint256",
          "name": "bounty",
          "type": "uint256"
        },
        {
          "internalType": "bool",
          "name": "bountyPaid",
          "type": "bool"
        }
      ],
      "stateMutability": "view",
      "type": "function"
    },
    {
      "inputs": [
        {
          "internalType": "uint256",
          "name": "longevity",
          "type": "uint256"
        },
        {
          "internalType": "bytes",
          "name": "secret",
          "type": "bytes"
        },
        {
          "internalType": "string",
          "name": "scheme",
          "type": "string"
        },
        {
          "internalType": "uint256",
          "name": "fid",
          "type": "uint256"
        }
      ],
      "name": "createSecret",
      "outputs": [],
      "stateMutability": "payable",
      "type": "function"
    },
    {
      "inputs": [
        {
          "internalType": "address",
          "name": "owner",
          "type": "address"
        }
      ],
      "name": "getLastSeen",
      "outputs": [
        {
          "internalType": "uint256",
          "name": "",
          "type": "uint256"
        }
      ],
      "stateMutability": "view",
      "type": "function"
    },
    {
      "inputs": [
        {
          "internalType": "uint256",
          "name": "offset",
          "type": "uint256"
        },
        {
          "internalType": "uint256",
          "name": "count",
          "type": "uint256"
        }
      ],
      "name": "getMetas",
      "outputs": [
        {
          "components": [
            {
              "internalType": "address",
              "name": "creator",
              "type": "address"
            },
            {
              "internalType": "uint256",
              "name": "longevity",
              "type": "uint256"
            },
            {
              "internalType": "string",
              "name": "scheme",
              "type": "string"
            },
            {
              "internalType": "uint256",
              "name": "fid",
              "type": "uint256"
            },
            {
              "internalType": "uint256",
              "name": "bounty",
              "type": "uint256"
            },
            {
              "internalType": "bool",
              "name": "bountyPaid",
              "type": "bool"
            }
          ],
          "internalType": "struct DeadCaster.SecretMetadata[]",
          "name": "",
          "type": "tuple[]"
        }
      ],
      "stateMutability": "view",
      "type": "function"
    },
    {
      "inputs": [],
      "name": "refreshSecrets",
      "outputs": [],
      "stateMutability": "nonpayable",
      "type": "function"
    },
    {
      "inputs": [
        {
          "internalType": "uint256",
          "name": "index",
          "type": "uint256"
        }
      ],
      "name": "revealSecret",
      "outputs": [
        {
          "internalType": "bytes",
          "name": "",
          "type": "bytes"
        }
      ],
      "stateMutability": "nonpayable",
      "type": "function"
    }
  ],
  "bytecode": "0x608060405234801561001057600080fd5b50611016806100206000396000f3fe6080604052600436106100605760003560e01c80633d1a0f11146100655780634aec3a321461007a57806361b94576146100b057806388193a25146100f4578063975136901461010957806398df67c614610136578063cafc24ff14610163575b600080fd5b610078610073366004610a1d565b610195565b005b34801561008657600080fd5b5061009a610095366004610a9e565b61031a565b6040516100a79190610b06565b60405180910390f35b3480156100bc57600080fd5b506100e66100cb366004610bb2565b6001600160a01b031660009081526002602052604090205490565b6040519081526020016100a7565b34801561010057600080fd5b5061007861054a565b34801561011557600080fd5b506100e6610124366004610bb2565b60026020526000908152604090205481565b34801561014257600080fd5b50610156610151366004610be2565b610554565b6040516100a79190610bfb565b34801561016f57600080fd5b5061018361017e366004610be2565b6108a0565b6040516100a796959493929190610c0e565b61019d610980565b6040805160c08101825233815260208082018990528251601f8601829004820281018201845285815260009383019187908790819084018382808284376000920182905250938552505050602080830186905234604080850191909152606090930182905284546001808201875595835291819020845160069093020180546001600160a01b0319166001600160a01b039093169290921782558301519381019390935581015190919060028201906102569082610d09565b50606082015160038201556080820151600482015560a0909101516005909101805460ff19169115159190911790556001805480820182556000919091527fb10e2d527612073b26eecdfd717e6a320cf44b4afac2b0732d9fcbe2b7fa0cf6016102c1858783610dc2565b50600054819033907f02b0e67a937d6b85fa5c7ba9d11dbc9cdd73679ff5f7584cc2800ee8a01b8c78906102f790600190610e92565b86863460405161030a9493929190610ea5565b60405180910390a3505050505050565b600054606090831061035f576040805160008082526020820190925290610357565b610344610994565b81526020019060019003908161033c5790505b509050610544565b6000805461036d8486610ee5565b111561038657600054610381908590610e92565b610388565b825b90506000816001600160401b038111156103a4576103a4610c55565b6040519080825280602002602001820160405280156103dd57816020015b6103ca610994565b8152602001906001900390816103c25790505b50905060005b8281101561053f5760006103f78288610ee5565b8154811061040757610407610ef8565b90600052602060002090600602016040518060c00160405290816000820160009054906101000a90046001600160a01b03166001600160a01b03166001600160a01b031681526020016001820154815260200160028201805461046990610c6b565b80601f016020809104026020016040519081016040528092919081815260200182805461049590610c6b565b80156104e25780601f106104b7576101008083540402835291602001916104e2565b820191906000526020600020905b8154815290600101906020018083116104c557829003601f168201915b5050509183525050600382015460208201526004820154604082015260059091015460ff161515606090910152825183908390811061052357610523610ef8565b60200260200101819052508061053890610f0e565b90506103e3565b509150505b92915050565b610552610980565b565b600054606090821061059e5760405162461bcd60e51b815260206004820152600e60248201526d1b9bc81cdd58da081cd958dc995d60921b60448201526064015b60405180910390fd5b60008083815481106105b2576105b2610ef8565b6000918252602082206006909102015481546001600160a01b0390911692508190859081106105e3576105e3610ef8565b90600052602060002090600602016001015460026000846001600160a01b03166001600160a01b03168152602001908152602001600020546106259190610ee5565b9050804210156106655760405162461bcd60e51b815260206004820152600b60248201526a1b9bdd08195e1c1a5c995960aa1b6044820152606401610595565b6000848154811061067857610678610ef8565b906000526020600020906006020160030154826001600160a01b03167fc8926ad61af449e29f2f06d912e3ebefd46bc0e90b80c323faf748236dab6dbf86600088815481106106c9576106c9610ef8565b9060005260206000209060060201600201600089815481106106ed576106ed610ef8565b90600052602060002090600602016004015460018a8154811061071257610712610ef8565b9060005260206000200160405161072c9493929190610fa4565b60405180910390a36000848154811061074757610747610ef8565b600091825260209091206005600690920201015460ff166107f15760016000858154811061077757610777610ef8565b60009182526020822060069190910201600501805460ff191692151592909217909155805433916108fc91879081106107b2576107b2610ef8565b9060005260206000209060060201600401549081150290604051600060405180830381858888f193505050501580156107ef573d6000803e3d6000fd5b505b6001848154811061080457610804610ef8565b90600052602060002001805461081990610c6b565b80601f016020809104026020016040519081016040528092919081815260200182805461084590610c6b565b80156108925780601f1061086757610100808354040283529160200191610892565b820191906000526020600020905b81548152906001019060200180831161087557829003601f168201915b505050505092505050919050565b600081815481106108b057600080fd5b60009182526020909120600690910201805460018201546002830180546001600160a01b0390931694509092916108e690610c6b565b80601f016020809104026020016040519081016040528092919081815260200182805461091290610c6b565b801561095f5780601f106109345761010080835404028352916020019161095f565b820191906000526020600020905b81548152906001019060200180831161094257829003601f168201915b50505050600383015460048401546005909401549293909290915060ff1686565b336000908152600260205260409020429055565b6040518060c0016040528060006001600160a01b03168152602001600081526020016060815260200160008152602001600081526020016000151581525090565b60008083601f8401126109e757600080fd5b5081356001600160401b038111156109fe57600080fd5b602083019150836020828501011115610a1657600080fd5b9250929050565b60008060008060008060808789031215610a3657600080fd5b8635955060208701356001600160401b0380821115610a5457600080fd5b610a608a838b016109d5565b90975095506040890135915080821115610a7957600080fd5b50610a8689828a016109d5565b979a9699509497949695606090950135949350505050565b60008060408385031215610ab157600080fd5b50508035926020909101359150565b6000815180845260005b81811015610ae657602081850181015186830182015201610aca565b506000602082860101526020601f19601f83011685010191505092915050565b60006020808301818452808551808352604092508286019150828160051b87010184880160005b83811015610ba457888303603f19018552815180516001600160a01b0316845287810151888501528681015160c088860181905290610b6e82870182610ac0565b606084810151908801526080808501519088015260a0938401511515939096019290925250509386019390860190600101610b2d565b509098975050505050505050565b600060208284031215610bc457600080fd5b81356001600160a01b0381168114610bdb57600080fd5b9392505050565b600060208284031215610bf457600080fd5b5035919050565b602081526000610bdb6020830184610ac0565b60018060a01b038716815285602082015260c060408201526000610c3560c0830187610ac0565b6060830195909552506080810192909252151560a0909101529392505050565b634e487b7160e01b600052604160045260246000fd5b600181811c90821680610c7f57607f821691505b602082108103610c9f57634e487b7160e01b600052602260045260246000fd5b50919050565b601f821115610cef57600081815260208120601f850160051c81016020861015610ccc5750805b601f850160051c820191505b81811015610ceb57828155600101610cd8565b5050505b505050565b600019600383901b1c191660019190911b1790565b81516001600160401b03811115610d2257610d22610c55565b610d3681610d308454610c6b565b84610ca5565b602080601f831160018114610d655760008415610d535750858301515b610d5d8582610cf4565b865550610ceb565b600085815260208120601f198616915b82811015610d9457888601518255948401946001909101908401610d75565b5085821015610db25787850151600019600388901b60f8161c191681555b5050505050600190811b01905550565b6001600160401b03831115610dd957610dd9610c55565b610ded83610de78354610c6b565b83610ca5565b6000601f841160018114610e1b5760008515610e095750838201355b610e138682610cf4565b845550610e75565b600083815260209020601f19861690835b82811015610e4c5786850135825560209485019460019092019101610e2c565b5086821015610e695760001960f88860031b161c19848701351681555b505060018560011b0183555b5050505050565b634e487b7160e01b600052601160045260246000fd5b8181038181111561054457610544610e7c565b848152606060208201528260608201528284608083013760006080848301015260006080601f19601f860116830101905082604083015295945050505050565b8082018082111561054457610544610e7c565b634e487b7160e01b600052603260045260246000fd5b600060018201610f2057610f20610e7c565b5060010190565b60008154610f3481610c6b565b808552602060018381168015610f515760018114610f6b57610f99565b60ff1985168884015283151560051b880183019550610f99565b866000528260002060005b85811015610f915781548a8201860152908301908401610f76565b890184019650505b505050505092915050565b848152608060208201526000610fbd6080830186610f27565b8460408401528281036060840152610fd58185610f27565b97965050505050505056fea2646970667358221220e588f0d1b6ca197660f6a66f61d3f2c42c42f85b12fadec417d0273b21486a8964736f6c63430008140033",
  "linkReferences": {},
  "deployedLinkReferences": {}
}